:02000000FC2AD8
:10000600710DF80DF90D7408F8027508031C750FCB
:10001600F902F00DF10D0F30FC00710DF80DF90D20
:100026007408701C1C28F8027508031C750FF90269
:100036002128F80775080318750FF907F00DF10D5B
:10004600FC0B102870182D287408F807750803187B
:08005600750FF9070000080016
:10005E00831203137408003A031D3E287508003AF4
:10006E00031D3E28FF30F0007F30F10097288312E9
:10007E000313FD01F901F80171087004031900342E
:10008E0071087506FA00FA1BFD09FB01F51F5428CD
:10009E00F409F509F40A0319F50AF11F5B28F009B2
:1000AE00F109F00A0319F10A71087504FA00FA1B36
:1000BE00702803207B188328FD1F0034F009F109F6
:1000CE00F00A0319F10AF809F909F80A0319F90AED
:1000DE000034F51F7F28F11B7B287108F90070088A
:1000EE00F800F101F0016328F101F001F00A00348B
:1000FE00F109F009FB0A6028F80A0319F90A7408D5
:10010E007802031D632875087902031D6328F9011F
:10011E00F801F00A0319F10AF11F63280000FF34F9
:02012E000800C7
:100130000A3083120313F4000030F5002A08F0009F
:100140002B08F1002F207808F0007908F1007008E2
:10015000AE007108AF0000302D06031DB12801303C
:100160002C06031DD9282E08860080302B06F000AF
:1001700080307002031DBE2814302A02031CC128DF
:10018000861680302B06F00080307002031DCA28CE
:100190000A302A02031CD82880302B06F000803059
:1001A0007002031DD52814302A020318D828061619
:1001B000FE282E08870080302B06F0008030700269
:1001C000031DE42814302A02031CE7288716803018
:1001D0002B06F00080307002031DF0280A302A023E
:1001E000031CFE2880302B06F00080307002031DB7
:0E01F000FB2814302A020318FE280716080008
:0E01FE008312031321088A00200882000800E3
:10020C00831203132408A2002508A30080302306C0
:10021C00F000803027067002031D162926082202E2
:10022C00031C43292208AA002308AB000130AC00B0
:10023C000030AD00982003302207AA0023080318D1
:10024C00013EAB000230AC000030AD0098200B300A
:10025C00FB002630FC005D30FD00FD0B3329FC0B50
:10026C003329FB0B33290000000005183E294329D4
:0C027C000130A202031CA3030C2908009F
:10028800831203132408A2002508A3008030230644
:10029800F000803027067002031D54292608220228
:1002A800031C78292208AA002308AB002808AC0000
:1002B8002908AD0098200B30FB002630FC005D308B
:1002C800FD00FD0B6529FC0B6529FB0B652900006A
:1002D8000000051C70297829851C732978290130AC
:0A02E800A202031CA3034A29080028
:1002F200831203132408A2002508A30080302306DA
:10030200F000803027067002031D89292608220288
:10031200031CB3292208AA002308AB000130AC0059
:100322000030AD0098202208AA002308AB0002305A
:10033200AC000030AD0098200B30FB002630FC00F2
:100342005D30FD00FD0BA329FC0BA329FB0BA329A8
:10035200000000000518AE29B3290130A202031CD7
:06036200A3037F2908003F
:10036800831203132408A2002508A3008030230663
:10037800F000803027067002031DC42926082202D7
:10038800031CF1290C302207AA0023080318013E98
:10039800AB000130AC000030AD0098202208AA0064
:1003A8002308AB000230AC000030AD0098200B30C1
:1003B800FB002630FC005D30FD00FD0BE129FC0B45
:1003C800E129FB0BE129000000000518EC29F129BF
:0C03D8000130A202031CA303BA29080094
:1003E400831203132408A2002508A30080302306E7
:1003F400F000803027067002031D022A260822021C
:10040400031C262A2208AA002308AB002808AC00F3
:100414002908AD0098200B30FB002630FC005D302D
:10042400FD00FD0B132AFC0B132AFB0B132A0000FF
:100434000000051C1E2A262A8518212A262A013096
:0A044400A202031CA303F82908001C
:10044E00831203132408A2002508A300803023067C
:10045E00F000803027067002031D372A260822027C
:10046E00031C672A03302207AA0023080318013E43
:10047E00AB000130AC000030AD00982003302207F5
:10048E00AA0023080318013EAB000230AC00003076
:10049E00AD0098200B30FB002630FC005D30FD00D7
:1004AE00FD0B572AFC0B572AFB0B572A00000000A6
:1004BE000518622A672A0130A202031CA3032D2A03
:0204CE00080024
:1004D0008312031308158810081088150812881253
:1004E0001430A4000030A5000130A6000030A700A1
:1004F000062105187C2AA82A0811081408160330BA
:10050000A4000030A5000130A6000030A700B421EF
:1005100005188B2AA82A8816081288110930A40009
:100520000030A5000130A6000030A70027220518E2
:100530009A2AA82A88140330A4000030A5000130AC
:10054000A6000030A70079210518A72AA82A682A42
:020550000800A1
:1005520083120313851CCE2A0814881408118815E7
:100562000812881287010330A4000030A500A601FA
:10057200A7010130A8000030A900F221851CC72A7A
:100582000518C72A081088100815BF2A051CCA2A90
:10059200EF2A8518CD2AEF2AEE2A081488100811AE
:1005A20088150816881286010330A4000030A500C1
:1005B200A601A7010230A8000030A9004421851835
:1005C200E82A0518E82A881108128816E02A051C6C
:0E05D200EB2AEF2A8518EE2AEF2AA92A080044
:1005E000FF208A110A128000840AA00A0319A10AB6
:0805F000F003031DF02A0800CE
:1005F8000730831603139F00860187018801831241
:10060800091489148316051185118312051585159A
:100618008316051485140516831286018701051EA5
:10062800162B132B051C1A2B68221B2BA9228312AD
:0A063800031386018701162B202B07
:02400E004A2F37
:00000001FF
